:020000040800F2
:1000000028040120DD010008E5010008E7010008DF
:10001000E9010008EB010008ED0100080000000004
:10002000000000000000000000000000EF010008D8
:10003000F101000800000000F3010008550200086B
:10004000F7010008F7010008F7010008F7010008B0
:10005000F7010008F701000825020008F701000871
:10006000F7010008F7010008F7010008F701000890
:10007000F7010008F7010008F7010008F701000880
:10008000F7010008F7010008F7010008F701000870
:10009000F7010008F7010008F7010008F701000860
:1000A000F7010008F7010008F7010008F701000850
:1000B000F7010008F7010008F7010008F701000840
:1000C000F7010008F7010008F7010008F701000830
:1000D000F7010008F7010008F7010008F701000820
:1000E000F7010008F7010008F7010008F701000810
:1000F000F7010008F7010008F7010008F701000800
:10010000F7010008F7010008F7010008F7010008EF
:10011000F7010008F7010008F7010008F7010008DF
:10012000F7010008F7010008F7010008F7010008CF
:10013000F7010008F7010008F7010008F7010008BF
:10014000F7010008F7010008F7010008F7010008AF
:10015000F7010008F7010008F7010008F70100089F
:10016000F7010008F7010008F7010008F70100088F
:10017000F7010008F7010008F7010008000000007F
:10018000F7010008F7010008F7010008F70100086F
:10019000F7010008F7010008F7010008F70100085F
:1001A000F7010008F7010008F7010008F70100084F
:1001B000F7010008F7010008F7010008F70100083F
:1001C000F7010008F7010008DFF80CD000F018F87C
:1001D00000480047C903000828040120064880475A
:1001E00006480047FEE7FEE7FEE7FEE7FEE7FEE71C
:1001F000FEE7FEE7FEE7FEE745030008C901000849
:10020000064C074D06E0E06840F0010394E8070063
:1002100098471034AC42F6D3FFF7DAFF5C050008CC
:100220007C050008002000E0401C41F2707188420B
:10023000FADB0648006840F0010004490860044801
:100240000068401C0249086070470000143C0140EF
:100250001C00012004E009480068401C07490860B0
:1002600006490968032908DA0549086800EBD071D6
:100270004910A0EB41010029EDD07047100001208A
:100280001C00012070B5002000220223002402215E
:10029000274D2D6805F00C0020B1042806D0082851
:1002A00034D107E0234D244E356033E0234D224EF8
:1002B00035602FE01E4D2D1F2D68C5F380541C4D59
:1002C0002D1F2D6805F03F0154B11C4DB5FBF1F514
:1002D000174E361F3668C6F3881605FB06F209E08E
:1002E000144DB5FBF1F5124E361F3668C6F388166D
:1002F00005FB06F20E4D2D1F2D68C5F301456D1C43
:100300006B00B2FBF3F50C4E356003E0094D0A4E6D
:10031000356000BF00BF064D2D68C5F30315084EBC
:10032000705D054D2D68C540034E356070BD000001
:10033000083802400024F4002000012040787D01AC
:10034000440500081448006840F470001249086031
:100350001248006840F001001049086000200F4971
:10036000083108600D4800680D4908400B490860D5
:100370000C48091D0860081F006820F48020091F30
:100380000860002005490C3108604FF00060024908
:10039000803908607047000088ED00E000380240B6
:1003A000FFFFF6FE1030002402E008C8121F08C14B
:1003B000002AFAD170477047002001E001C1121FE6
:1003C000002AFBD1704700000E20504908604F48BA
:1003D0001430006840F480404C49143108604C48A7
:1003E0004C4908600020091D08604948091D086043
:1003F0000020091D08604FF4AA404749086000200A
:10040000091D08604FF4AA40091D08600020091D5D
:10041000086042490860091D08600120091D086044
:10042000091D0860FFF72EFF3D4800684108481E7F
:10043000B0F1807F00D31BE0481E4FF0E0225061F6
:1004400050170F22002804DB13071C0E354B1C54D9
:1004500006E013071D0E344B00F00F04241F1D553A
:1004600000BF00204FF0E02290610720106100BF24
:1004700002202E4908602E48006840F001002C49F7
:1004800008602B480830006840F001002849083116
:1004900008600620002809DB00F01F0201219140BE
:1004A0004209920002F1E022C2F8001100BF2CE0E4
:1004B00020482149096850F8210016491431086084
:1004C0001E480178102088401349143108601B48E9
:1004D0000068401C19490860002000E0401C1849D1
:1004E00009688842FADB14480068401C1249086019
:1004F00008460068042801D1002008600F48006801
:10050000042802D100200D490860D1E730380240AC
:100510005415010000040240000C02400008024093
:100520002000012000E400E018ED00E00838014060
:10053000003C0140000001201800012010000120B3
:10054000140001200000000000000000010203046C
:100550000607080900000000010203047C050008EA
:100560000000012024000000A8030008A0050008E6
:100570002400012004040000B8030008100100005A
:1005800002000000620100001000000000000000F6
:10059000E803000000000000010000000024F40057
:04000005080001DD11
:00000001FF
